:020000040800F2
:10000000680B002439030008292900081929000871
:10001000212900081104000899320008000000009E
:10002000000000000000000000000000A92B0008F4
:10003000190400080000000061290008E12B0008F5
:100040005703000857030008570300085703000828
:100050005703000857030008570300085703000818
:100060005703000857030008570300085703000808
:1000700057030008570300085703000857030008F8
:1000800057030008570300085703000857030008E8
:1000900057030008570300085703000857030008D8
:1000A00057030008570300085703000857030008C8
:1000B00057030008570300085703000857030008B8
:1000C00057030008570300085703000857030008A8
:1000D0005703000889320008570300085703000837
:1000E00057030008570300080000000057030008EA
:1000F0005703000857030008570300085703000878
:100100005703000857030008570300085703000867
:100110005703000857030008570300085703000857
:100120005703000857030008570300085703000847
:100130005703000857030008570300085703000837
:1001400000000000000000000000000000000000AF
:100150005703000857030008570300085703000817
:100160005703000857030008570300085703000807
:100170005703000857030008570300080000000059
:1001800057030008570300085703000857030008E7
:1001900057030008570300085703000857030008D7
:1001A00057030008570300085703000857030008C7
:1001B00057030008570300085703000857030008B7
:1001C00057030008570300085703000857030008A7
:1001D0005703000857030008570300085703000897
:1001E0005703000857030008570300085703000887
:1001F0005703000857030008570300085703000877
:100200005703000857030008570300085703000866
:100210005703000857030008570300085703000856
:1002200057030008570300085703000800000000A8
:100230005703000857030008000000005703000898
:100240005703000857030008570300085703000826
:100250005703000857030008570300085703000816
:100260005703000857030008570300085703000806
:100270005703000857030008570300080000000058
:100280005703000857030008570300080000000048
:10029000000000005703000800F002F800F03CF8EE
:1002A0000AA090E8000C82448344AAF10107DA45D1
:1002B00001D100F031F8AFF2090EBAE80F0013F0E7
:1002C000010F18BFFB1A43F0010318470C37000059
:1002D0002C370000103A24BF78C878C1FAD85207EA
:1002E00024BF30C830C144BF04680C6070470000B0
:1002F0000023002400250026103A28BF78C1FBD82F
:10030000520728BF30C148BF0B6070471FB503F0CC
:100310003DFB1FBD10B510BD00F04AF81146FFF7B8
:10032000F5FF03F0ADF800F068F803B4FFF7F2FF53
:1003300003BC02F0E1FF00000A4880470A488047FA
:100340000A480047FEE7FEE7FEE7FEE7FEE7FEE7B6
:10035000FEE7FEE7FEE7FEE705480649064A074BCB
:100360007047000021040008E92B000899020008EA
:1003700068010024680B002468030024680300243B
:100380007047704770477047704710B500F008F825
:10039000006810BD10B5044600F002F8046010BDFE
:1003A00000487047180000240048704718000024D7
:1003B0007546FFF7F9FFAE4605006946534620F043
:1003C0000700854618B020B5FFF7C6FFBDE82040FE
:1003D0004FF000064FF000074FF000084FF0000B01
:1003E000AC46ACE8C009ACE8C009ACE8C009ACE870
:1003F000C00921F007018D46704710B50446AFF3E0
:1004000000802046BDE81040FFF78FBF00000000CD
:10041000FEE7000000000000704700000000000040
:1004200044F60C000122C5F60200016862F30101E6
:10043000016000BF50F8081C8904FBD5704700001C
:100440002DE9F041044600F01BFDFCB1054694F88F
:10045000350002281DD140F2B7082068C4F2020816
:1004600040451ADD40F25741C4F20201884225DCC2
:1004700040F22741C4F2020188423ADCB821C4F2BA
:100480000201884252D040F210414AE00120BDE80A
:10049000F081802060650120A8E25721C4F20201AA
:1004A00088421ADD8721C4F2020188422ADC5821E1
:1004B000C4F20201884239D0702132E040F2874113
:1004C000C4F20201884224DC40F25841C4F2020125
:1004D00088422BD040F2704123E01021C4F2020187
:1004E000884223D02821C4F2020188421ED0402134
:1004F00017E040F22841C4F20201884216D040F2CF
:1005000040410EE08821C4F2020188420ED0A021B1
:1005100007E040F2A041C4F20201884206D040F256
:100520008841C4F20201884240F0DE81016821F076
:100530001E0101602668716921F08001716140F23D
:100540006F47C4F20207B84217DC9F21C4F20201D0
:1005500088422DDC5721C4F20201884250DC102170
:10056000C4F20201884200F08B802821C4F202010B
:10057000884200F0858040216BE045F22F41C5F6AE
:100580000201884227DC40F2B741C4F202018842EE
:1005900042DC40F27041C4F20201884270D040F265
:1005A0008841C4F2020188426AD040F2A04150E082
:1005B00040F22741C4F2020188423CDCA021C4F28F
:1005C000020188425CD0B821C4F20201884257D0AF
:1005D00040F210413DE045F26B41C5F60201884210
:1005E0003CDC45F23041C5F60201884248D045F274
:1005F0004441C5F60201884242D045F258413BE0F1
:100600005821C4F2020188423AD07021C4F202019A
:10061000884235D088211CE040F2B841C4F2020182
:1006200088422DD045F20841C5F60201884227D004
:1006300045F21C4120E040F22841C4F20201884208
:100640001ED040F24041C4F20201884218D040F26C
:100650005841C4F20201884212D07FE045F26C4159
:10066000C5F6020188420BD045F29441C5F602015D
:10067000884205D045F28041C5F6020188426DD11D
:10068000216E40F20F430A68C4F2020322F4807222
:1006900098420A6010DC6F21C4F2020188421CDC1F
:1006A0003F21C4F20201884232DC1021C4F202016F
:1006B000884252D028214AE0B8421ADC40F23F4139
:1006C000C4F2020188422ADC40F21041C4F2020165
:1006D000884242D040F2284139E09F21C4F2020111
:1006E000884225DC7021C4F20201884235D088217D
:1006F0002DE040F29F41C4F2020188421FDC40F22B
:100700007041C4F20201884227D040F288411EE0C5
:100710004021C4F2020188421FD0582117E040F264
:100720004041C4F20201884217D040F258410EE025
:10073000A021C4F2020188420FD0B82107E040F2A4
:10074000B841C4F20201884207D040F2A041C4F28D
:100750000201884208BF206800E02068016821F09B
:10076000010101603068C0070BD000F089FB401B1D
:100770000628F7D320206065032084F83500012087
:1007800034E12068404513DD40F25741C4F20201D4
:1007900088421EDC40F22741C4F20201884233DC69
:1007A000B821C4F2020188424AD040F2104143E02D
:1007B0005721C4F2020188421ADD8721C4F20201E6
:1007C00088422ADC5821C4F20201884238D07021C4
:1007D00032E040F28741C4F20201884224DC40F258
:1007E0005841C4F2020188422AD040F2704123E00D
:1007F0001021C4F20201884222D02821C4F2020151
:1008000088421DD0402117E040F22841C4F2020185
:10081000884215D040F240410EE08821C4F2020126
:1008200088420DD0A02107E040F2A041C4F20201AD
:10083000884205D040F28841C4F20201884260D16A
:10084000A16DE26D3F2302F01F0203FA02F28A60FB
:10085000B84266DC9F21C4F20201884212DC5721B3
:10086000C4F20201884222DC1021C4F20201884253
:1008700000F0AC802821C4F20201884200F0A6807A
:10088000402168E040F22741C4F2020188421CDCAA
:10089000A021C4F20201884200F09880B821C4F27D
:1008A0000201884200F0928040F2104153E058214A
:1008B000C4F20201884200F089807021C4F2020172
:1008C000884200F08380882145E040F22841C4F24C
:1008D000020188427AD040F24041C4F202018842CB
:1008E00074D040F2584136E040F2B841C4F20201FF
:1008F000884201683FF41BAE21F00E0101602668BA
:100900001DE640F2B841C4F202018842A16D98D0C0
:10091000E26D012302F01F0203FA02F24A60B842BC
:1009200098DD45F22F41C5F60201884218DC40F2FD
:10093000B741C4F20201884227DC40F27041C4F2A0
:100940000201884242D040F28841C4F2020188424A
:100950003CD040F2A041C4F20201884236D041E0CE
:1009600045F26B41C5F6020188421DDC45F230417B
:10097000C5F60201884229D045F24441C5F602017C
:10098000884223D045F258411CE040F2B841C4F2FD
:10099000020188421AD045F20841C5F60201884298
:1009A00014D045F21C410DE045F26C41C5F6020140
:1009B00088420BD045F29441C5F60201884205D029
:1009C00045F28041C5F6020188420BD1E06ED4E9C0
:1009D00019124A6030B1016821F480710160D4E9D4
:1009E0001C014160012084F835000020002184F8BA
:1009F0003410BDE8F081000010B5E8B190F8351072
:100A0000022917D140F20F420168C4F2020291425A
:100A100015DC6F23C4F20203994225DC3F23C4F2A4
:100A2000020399423BDC1023C4F20203994259D0DD
:100A3000282353E0802141650121084610BD40F282
:100A40006F43C4F2020399421ADC40F23F43C4F2FE
:100A5000020399422ADC40F21043C4F20203994295
:100A600040D040F2284339E09F23C4F20203994268
:100A700025DC7023C4F20203994233D088232DE091
:100A800040F29F43C4F2020399421FDC40F27043DC
:100A9000C4F20203994225D040F288431EE040236D
:100AA000C4F2020399421DD0582317E040F240439C
:100AB000C4F20203994215D040F258430EE0A0233D
:100AC000C4F2020399420DD0B82307E040F2B843C4
:100AD000C4F20203994205D040F2A043C4F20203DB
:100AE000994270D10423914280F8353010DC6F2296
:100AF000C4F20202914220DC3F22C4F2020291427F
:100B000036DC1022C4F20202914254D028224EE078
:100B100040F26F42C4F2020291421ADC40F23F42BC
:100B2000C4F2020291422ADC40F21042C4F20202F4
:100B3000914240D040F2284239E09F22C4F20202A2
:100B4000914225DC7022C4F20202914233D0882205
:100B50002DE040F29F42C4F2020291421FDC40F2BB
:100B60007042C4F20202914225D040F288421EE057
:100B70004022C4F2020291421DD0582217E040F2F6
:100B80004042C4F20202914215D040F258420EE0B7
:100B9000A022C4F2020291420DD0B82207E040F236
:100BA000B842C4F20202914205D040F2A042C4F21F
:100BB0000202914225D10068016821F00101016023
:100BC0000021084610BD0268136823F00E0313606D
:100BD00045F257430A68C5F60203994222F0010222
:100BE0000A6013DC45F22F42C5F6020291421CDC7A
:100BF00045F20842C5F6020291422BD045F21C4252
:100C000024E0086820F001000860D9E745F27F423F
:100C1000C5F60202914211DC45F25842C5F60202C5
:100C2000914217D045F26C4210E045F23042C5F6D1
:100C3000020291420ED045F2444207E045F294424E
:100C4000C5F60202914205D045F28042C5F6020285
:100C500091421AD1D0E9183ED0E916C21968012490
:100C600021F4807102F01F02196004FA02F1CCF83D
:100C70000410816ECEF80410C16E31B10A6822F4FE
:100C800080720A60D0E91C124A60012180F8351098
:100C90000021026D80F834100AB190470021084607
:100CA00010BD00000000000040F22040C5F600002A
:100CB000016841F001010160704700000000000080
:100CC0002DE9F04F83B00C68002C00F0CE8000F1CD
:100CD000264242F2004702F1FF72C5F602070A23DC
:100CE000B8424FEAB2224FF000054FF000074FF034
:100CF0000108009208BF0923019309E00C6804373A
:100D000034FA08F208F1010805F1020500F0AD809F
:100D1000A8F1010A012202FA0AFC14EA0C09EDD03A
:100D2000D1F804B00BF00304A4F1010EBEF1010FE1
:100D300014D803228668AA40CB6826EA0202AB4098
:100D40001A434FF0030E82604268CBF3001322EA8D
:100D50000C0203FA0AF31A43426003E0032C4FF03B
:100D6000030E1DD0C2680EFA05F38E689A4306FA88
:100D700005F3022C42EA0302C26011D16FF00302B4
:100D800007F01C0602EA5A020F23024403FA06F493
:100D9000D2F820C00B692CEA0404B3402343136249
:100DA00002684B680EFA05F603F00304B24304FA36
:100DB00005F6324313F4403F02609FD044F2F44200
:100DC0002AF0030AC5F6020207F00C061346126861
:100DD00042F002021A601A6802F00202029240F225
:100DE0000842C5F60002029B93465AF802C00F2241
:100DF000009B019C02FA06FE092B38BF1C462CEA18
:100E00000E0304FA06F633434FF0B04C4AF80B30A9
:100E1000DCF800204B6842EA0906DC0258BF22EAEF
:100E200009060422CCF80060C5F600029446126858
:100E300042EA09069C0258BF22EA0906CCF8006083
:100E4000DCF880209C0342EA090658BF22EA090622
:100E5000CCF88060DCF87C20DB0342EA090658BF4E
:100E600022EA0906CCF87C6048E703B0BDE8F08FC1
:100E700041F20000C5F600400068000C7047000019
:100E800040F26010C2F200400068704700000000AD
:100E900040F20C0040F26011C2F20040C2F2004188
:100EA00000780A68104408607047000000000000E5
:100EB00080B5052000F070F800F082FE44F2184181
:100EC00043F6C813C5F60201C0F600030A68C2F370
:100ED000032209689A5C01F00F01595C02F01F02BD
:100EE000D04001F01F0140F2080220FA01F1C2F2E5
:100EF0000042116040F20401C2F2004108600F207C
:100F000000F00AF800281CBF012080BD00F030F876
:100F1000002080BD00000000B0B540F20C01C2F21C
:100F20000041097801B304464FF47A70B0FBF1F048
:100F300040F20401C2F200410968B1FBF0F001F097
:100F40005BF90F2C4FF001050CD858B94FF0FF306A
:100F500000222146002500F00FF840F21000C2F2F6
:100F6000004004602846B0BD01252846B0BD000001
:100F7000704700000000000070B514460D4606469C
:100F800002F08EF92946224601F0D2FC0146304695
:100F9000BDE8704002F08CB902F09EB9000000007C
:100FA00044F60C00C5F60200016841F08071016052
:100FB00070470000000000002DE9F04F81B00446AA
:100FC000C07844F22C480007C5F6020826D5A06E6A
:100FD0004FEA305003280AD8DFE800F0020B11185E
:100FE000D8F8000040F40030C8F800000EE00125F9
:100FF00015E004F10800022101F0B6FC04E004F160
:101000002800022101F040FD054640B9D8F824002F
:10101000A16E20F440100843C8F824000025607831
:10102000C00701D12F462AE0A06D04280DD82F4615
:10103000DFE800F0030E141A1A00D8F800002F465B
:1010400040F40030C8F800000EE00127012617E048
:1010500004F10800002101F087FC04E004F12800FD
:10106000002101F011FD07463E464FB9D8F8240093
:10107000A16D20F0070000270843C8F824002E4681
:10108000607880072AD5E06D4FEAB01004280BD8AD
:10109000DFE800F0030D13191900D8F8000040F440
:1010A0000030C8F800000EE00127012517E004F128
:1010B0000800002101F058FC04E004F128000021A0
:1010C00001F0E2FC07463D464FB9D8F82400E16D37
:1010D00020F4E07000270843C8F824003546607803
:1010E00040072DD5D4F8A8004FEA705004280BD83B
:1010F000DFE800F0030E141A1A00D8F8000040F4DC
:101100000030C8F800000FE001274FF0010918E097
:1011100004F10800002101F027FC04E004F128009C
:10112000002101F0B1FC0746B94657B9D8F82C00A8
:10113000D4F8A81020F4600000270843C8F82C0059
:10114000A946607800072CD5D4F8AC004FEA30608F
:1011500004280BD8DFE800F0030D13191900D8F8A4
:10116000000040F40030C8F800000EE0012701261E
:1011700018E004F10800002101F0F6FB04E004F19E
:101180002800002101F080FC07463E4657B9D8F8F8
:101190002C00D4F8AC1020F0E06000270843C8F819
:1011A0002C004E46E078800723D5E06C4FEA3010E3
:1011B00003280AD8DFE800F012020C12D8F8000069
:1011C00040F40030C8F8000008E00127012511E0D4
:1011D00004F10800022101F0C7FB07463D464FB964
:1011E000D8F82000E16C20F0300000270843C8F850
:1011F000200035466078C0062AD5206E4FEA303090
:1012000004280BD8DFE800F0030D13191900D8F8F3
:10121000000040F40030C8F800000EE0012701266D
:1012200017E004F10800002101F09EFB04E004F146
:101230002800002101F028FC07463E464FB9D8F8A7
:101240002400216E20F4E04000270843C8F8240061
:101250002E466078800623D5606E4FEA3040052820
:101260000AD8DFE800F012030C12121204F1080091
:10127000012101F079FB07E00127012511E004F1CC
:101280002800012101F000FC07463D464FB9D8F87F
:101290002400616E20F4E02000270843C8F82400F1
:1012A00035466078400625D5D4F8B0004FEA307056
:1012B00005280AD8DFE800F012030C12121204F11C
:1012C0000800012101F050FB07E00127012612E090
:1012D00004F12800012101F0D7FB07463E4657B92B
:1012E000D8F82C00D4F8B01020F0E04000270843D4
:1012F000C8F82C002E46607800061FD5206F90B1EC
:10130000B0F1005F09D0B0F1805F29D1D8F80000BA
:1013100040F40030C8F8000005E004F108000121A5
:1013200001F022FB07463D464FB9D8F82400216F53
:1013300020F0405000270843C8F824003546E078E4
:10134000C00725D0A06C03280DD8DFE800F01602F6
:101350001016D8F8000040F40030C8F800000CE087
:1013600001270125EBE701274FF0010911E004F106
:101370000800022101F0F8FA0746B9464FB9D8F83B
:101380002000A16C20F0030000270843C8F82000CB
:10139000A946A078400602D43D464E4617E0D8F84C
:1013A000D40340F48070C8F8D403FFF769FD054604
:1013B000D8F8D403C00507D4FFF762FD401B6428AA
:1013C000F6D90325032602E0A7B13D463E46207824
:1013D000C00755D0E06F4FEAF00005283CD8DFE8A1
:1013E00000F044033E44444404F10800012101F0AC
:1013F000BBFA39E0D8F84410D4F8B400414011F4F5
:10140000407F11D0D8F84410D8F8442042F48032FC
:1014100021F44071C8F84420D8F8442022F48032E6
:10142000C8F84420C8F84410B0F5807F40F07A82B4
:10143000FFF726FD824641F2883B0325032600BFC5
:10144000D8F84400800700F16882FFF719FDA0EB8F
:101450000A005845F4D9BAE70125012711E004F143
:101460002800012101F010FB05462F464DB9D8F8A0
:101470002800E16F20F0380000250843C8F8280054
:1014800037462078800721D5A06F05280AD8DFE8E5
:1014900000F012030C12121204F10800012101F0F5
:1014A00063FA07E00125012611E004F1280001217B
:1014B00001F0EAFA05462E464DB9D8F82800A16F8A
:1014C00020F0070000250843C8F828003E46207891
:1014D000400724D5D4F8940005280AD8DFE800F0A6
:1014E00013030D13131304F10800012101F03CFA5A
:1014F00008E001254FF0010912E004F12800012164
:1015000001F0C2FA0546A94655B9D8F82C00D4F81E
:10151000941020F0070000250843C8F82C00B146BD
:101520002078800625D5D4F890004FEA3070052841
:101530000AD8DFE800F012030C12121204F10800BE
:10154000002101F011FA07E00125012712E004F162
:101550002800022101F098FA05462F4655B9D8F81F
:101560002800D4F8901020F0E04000250843C8F887
:1015700028004F462078400625D5D4F89C004FEA35
:10158000B02005280AD8DFE800F012030C1212126E
:1015900004F10800002101F0E7F907E00125012628
:1015A00012E004F12800022101F06EFA05462E46F1
:1015B00055B9D8F82C00D4F89C1020F4E050002540
:1015C0000843C8F82C003E462078000625D5D4F8FC
:1015D000A0004FEA703005280AD8DFE800F01203B7
:1015E0000C12121204F10800002101F0BDF907E00D
:1015F0000125012712E004F12800022101F044FA3C
:1016000005462F4655B9D8F82C00D4F8A01020F480
:10161000604000250843C8F82C00374620780007B2
:1016200015D5D4F88400B0F5805F07D104F1280007
:10163000022101F029FA002818BF0127D8F8280054
:10164000D4F8841020F440500843C8F828002078CB
:10165000C00615D5D4F89800B0F5807F07D104F105
:101660002800022101F010FA002818BF0127D8F83D
:101670002C00D4F8981020F440700843C8F82C00CF
:10168000A078000720D5D4F8A400B0F5003F0FD013
:10169000B0F5803F06D070BB04F10800002101F0D6
:1016A00063F904E004F12800022101F0EDF9054698
:1016B0002E4655B9D8F82C00D4F8A41020F44030A8
:1016C00000250843C8F82C003E46A078400727D5DF
:1016D000D4F88800B0F5401F16D0B0F5001F0DD02B
:1016E000B0F5801F40F01181D8F8000040F40030C0
:1016F000C8F8000008E001250126E6E704F128000B
:10170000012101F0C1F905462F4655B9D8F8280046
:10171000D4F8881020F4401000250843C8F82800A9
:101720003746A078C00701D13E461FE0206DB0F5D6
:10173000803F07D0C0B9D8F8000040F40030C8F8A6
:10174000000005E004F10800022101F00DF9054652
:101750002E465DB9D8F82000216D20F48030002598
:101760000843C8F82000DFE701250126E07880065D
:1017700007D504F12800022101F086F9002818BFDE
:101780000126D4E900108A0373D5D4F880206FF0C5
:10179000010303EB3223022B0BD34FEA322343B175
:1017A000012B40F0B580D8F8003043F40033C8F87E
:1017B0000030002D56D0CA025ED4CA0066D48A0218
:1017C0006FD44A0078D4B1F1FF3F40F3868009021C
:1017D00000F18E80C00707D004F10800002101F05D
:1017E000C3F8002818BF05462079800707D504F103
:1017F0000800012101F0B8F8002818BF054620793B
:10180000400707D504F10800022101F0ADF80028D7
:1018100018BF05462079000707D504F128000021EC
:1018200001F032F9002818BF05462079C00607D517
:1018300004F12800012101F027F9002818BF05460E
:101840002079800607D504F12800022101F01CF957
:10185000002818BF0546002D18BF0125284601B0F5
:10186000BDE8F08FD8F8283023F440731A43C8F845
:1018700028203546CA02A0D5D8F82420636F22F06C
:1018800000421A43C8F82420CA0098D558F81C2CE6
:10189000D4F8B83022F480421A4348F81C2C8A024B
:1018A0008FD5D8F82420E36E22F080721A43C8F84E
:1018B00024204A007FF587AF58F81C2C22F4004200
:1018C00048F81C2CD4F8BC2058F81C3C1A4348F8A3
:1018D0001C2CB1F1FF3F3FF77AAFD8F82020636DA1
:1018E00022F040521A43C8F8202009027FF572AF57
:1018F000D8F82810D4F88C2021F440011143C8F8FE
:101900002810C0077FF468AF6EE70125012708E7BC
:101910000125CA027FF551AFAEE7002F3D463E4696
:101920007FF455ADD4F8B40058F81C2C00F4407185
:10193000B1F5407F22F47C5106D14FF6CF72C0F250
:10194000FF0202EA1012114348F81C1C6FF31F300B
:10195000D8F8441000250843C8F844001DE50000ED
:101960002DE9F04381B0002800F0238142F2000805
:101970000446C5F200288946D8F8000000F00F00A0
:1019800088420ED2D8F8000020F00F0040EA09008B
:10199000C8F80000D8F8000000F00F00484540F0FB
:1019A0000881206844F218474107C5F602070AD5A6
:1019B00021693A6802F07002914204D93A6822F033
:1019C00070021143396001070AD561697A6802F033
:1019D0007002914204D97A6822F070021143796052
:1019E000C1060AD5A1697A6802F4E062914204D97D
:1019F0007A6822F4E0621143796081060AD5E169D0
:101A0000BA6802F07002914204D9BA6822F07002FA
:101A10001143B96081070AD5E1683A6802F00F0204
:101A2000914204D93A6822F00F0211433960C0078D
:101A30003FD0386820F47061D4E9010211430328D3
:101A4000396007D002280BD157F8181C890340F1E0
:101A5000B08010E057F8181C890140F1AA800AE014
:101A6000012857F8181C03D1C90540F1A28002E0F3
:101A7000490740F19E8057F8081C21F007010843F0
:101A800047F8080CFFF7FCF9064641F2883500BF1D
:101A900057F8080C616800F03800B0EBC10F08D0AF
:101AA000FFF7EEF9801BA842F2D9032001B0BDE890
:101AB000F083206881070AD5E1683A6802F00F02D6
:101AC000914204D23A6822F00F0211433960D8F8EB
:101AD000001001F00F0149450DD9D8F8001021F090
:101AE0000F0141EA0901C8F80010D8F8001001F010
:101AF0000F0149455DD141070AD521693A6802F0D5
:101B00007002914204D23A6822F0700211433960A7
:101B100001070AD561697A6802F07002914204D225
:101B20007A6822F0700211437960C1060AD5A16972
:101B30007A6802F4E062914204D27A6822F4E062A8
:101B40001143796080060AD5E069B96801F0700137
:101B5000884204D2B96821F070010843B86000F0EF
:101B60002FF8396843F6C812C1F30321C0F600020A
:101B70003B68515C03F00F03D25C01F01F0120FAB7
:101B800001F140F2100302F01F0040F2080221FAB6
:101B900000F0C2F20042106040F20402C2F20043C0
:101BA000C2F200421868116001B0BDE8F043FFF7CF
:101BB000B3B9012001B0BDE8F083000000000000CF
:101BC00044F20041C5F602010869C0F3C2000328CF
:101BD0000FD002282BD078BB0868800649F200009D
:101BE000C0F2D03058BF70470968C1F3C101C84086
:101BF00070478A6A886AC0F3051CCB6A486B03F099
:101C00000103C0F3CC00BCF1000F03FB00F000EEB9
:101C1000100AB8EE400A14D002F00302022A12D0D1
:101C2000A2B90868800614D49FED251A1EE047F675
:101C30004000C0F27D10704740F60010C0F23D0039
:101C40007047002070479FED1D1A0FE09FED1A1A94
:101C50000CE0086849F20002C0F3C100C0F2D032C3
:101C600022FA00F001EE100AB8EE411A02EE10CA94
:101C70009FED143AB8EE422A086B6FF35F2081EEB5
:101C8000021A02EE100AB8EE422A086BC0F3462090
:101C900000EE032AB7EE000A013032EE000A21EE10
:101CA000000A01EE100AB8EE411A80EE010ABCEEFD
:101CB000C00A10EE100A70470024744A20BCBE4BC4
:101CC0000024744C00000039F0B581B0002800F009
:101CD000B2810446007844F20046C007C5F6020609
:101CE0004BD0306900F03801B06A102905D01829AE
:101CF00009D100F00300022805D1306880033CD5EB
:101D00006068D0BB97E1606868B1B0F5803F06D0ED
:101D1000B0F5A02F30681CD140F4802030603068CE
:101D200040F480301BE0306820F480303060306850
:101D300020F480203060FFF7A3F805463068800368
:101D40001BD5FFF79DF8401B64284FF00300F5D921
:101D50004FE220F480303060306820F48020306022
:101D6000FFF78EF8054600BF3068800305D4FFF703
:101D700087F8401B6428F7D973E12078800760D585
:101D8000306910F03801B06A17D0182908BF5FEA2F
:101D9000807012D0E0683168C0B321F019010843A7
:101DA0003060FFF76DF80546306840071FD4FFF735
:101DB00067F8401B0228F7D953E13068400703D584
:101DC000E068002800F037813068E16820F01900F1
:101DD00008433060FFF754F8054600BF30684007FD
:101DE00005D4FFF74DF8401B0228F7D939E1FFF77A
:101DF0003FF841F20301884219D8206971684028F0
:101E000021F47C311AD141F4003019E021F00100B5
:101E10003060FFF735F805463068400711D5FFF709
:101E20002FF8401B02284FF00300F5D9E1E170685C
:101E3000216920F0FE4040EA016001E041EA003003
:101E400070602078C00653D5306900F03801B06A60
:101E5000082905D018290BD100F00300012807D16B
:101E60003068C00519D5E069802840F0E48014E0AE
:101E7000E0690028306827D040F080003060FEF72D
:101E8000FFFF05463068C00507D4FEF7F9FF401B89
:101E900002284FF00300F5D9ABE1FEF7E9FF41F26C
:101EA0000301884208D8206A7168202821F0F8418F
:101EB0001BD141F080401AE0F068216A20F07C508C
:101EC00040EA0160F06013E020F080003060FEF72F
:101ED000D7FF05463068C0050AD5FEF7D1FF401B85
:101EE00002284FF00300F5D983E141EA8060706079
:101EF0002078000725D560690028706F0FD040F06A
:101F000001007067FEF7BCFF054600BF706F8007D9
:101F100017D4FEF7B5FF401B0228F7D9A1E020F047
:101F200001007067FEF7ACFF054600BF706F8007C9
:101F300007D5FEF7A5FF401B02284FF00300F5D997
:101F400057E12078800624D5A069002830680ED09B
:101F500040F480503060FEF793FF054630688004FF
:101F600017D4FEF78DFF401B0228F7D979E020F443
:101F700080503060FEF784FF054600BF3068800463
:101F800007D5FEF77DFF401B02284FF00300F5D96F
:101F90002FE12078400751D4656A002D00F00E81B2
:101FA000306900F0380018286DD1012DB16A306B0E
:101FB00041D001F00302A36A9A423CD1C1F305115A
:101FC000E26A914237D10146226B6FF35F21013AF9
:101FD000914230D1C0F34621626B013A91422AD13D
:101FE000C0F30641A26B013A914224D1C0F30660CE
:101FF000E16B013988421ED1706BC0F3CC00A16C3B
:10200000814200F0DB80F06A20F00100F062FEF710
:1020100037FF0546FEF734FFA842FBD0706B4FF642
:10202000F8718843A16C40EAC1007063F06A40F027
:102030000100F062C2E0012001B0F0BDD6F800045A
:1020400040F48070C6F80004FEF71AFF054600BF92
:10205000D6F80004C00507D4FEF712FF401B642821
:10206000F6D9032001B0F0BDA06868B3012806D0FE
:102070000528306F40F0A58040F004003067306FD5
:1020800040F00100A3E0306820F080703060FEF77F
:10209000F7FE022D05460BD1306880012ED5FEF7E4
:1020A000EFFE401B02284FF00300F5D9A1E000BF6E
:1020B0003068800140F18280FEF7E2FE401B02287A
:1020C0004FF00300F4D994E0306F20F00100306746
:1020D000306F20F004003067FEF7D2FE054641F273
:1020E000883700BF306F80077FF556AFFEF7C8FE18
:1020F000401BB8424FF00300F4D97AE0B06A40F2D6
:10210000F33104F1280388430ECB0843616B40EAA6
:1021100002105A1EB0624FF47E4000EB41206FF374
:102120005F2280B2A16B4FF4FE03104403EB014128
:10213000E26B4FF0FE4301F4FE0103EB0262084440
:1021400002F0FE4108444FF6F8713063F06A20F067
:102150000100F062706B8843A16C40EAC1007063BB
:10216000F06A216C20F00C000843F062F06A616CA8
:1021700020F002000843F062F06A40F48030F06220
:10218000F06A40F40030F062F06A40F48020F062BF
:10219000F06A40F00100F062306840F0807030601A
:1021A000FEF76EFE04463068800107D4FEF768FE35
:1021B000001B02284FF00300F5D91AE0002001B0FF
:1021C000F0BD20F001003067306F20F00400306770
:1021D000FEF756FE054641F2883700BF306F800794
:1021E0003FF5DAAEFEF74CFE401BB8424FF003005D
:1021F000F4D901B0F0BD000000F0DABC000000002E
:10220000B0B5044690F83C00012801D10220B0BDD1
:102210000D464FEAB2010120052984F83C0048D858
:10222000DFE801F0030B131B23332068294600F07D
:1022300003FE206850F8181F1EE02068294600F0B1
:102240005FFE206850F8181F26E02068294600F03D
:10225000AFFE206850F81C1F0EE02068294600F0F1
:10226000FBFE206850F81C1F16E02068294600F08D
:1022700037FF206850F8541F41F0080101600168E1
:1022800021F00401016029690FE02068294600F06F
:102290006BFF206850F8541F41F400610160016831
:1022A00021F480610160296909020268114301601B
:1022B0000020002184F83C10B0BD000000000000A8
:1022C00060B310B5044690F83D0028B9002084F8AA
:1022D0003C00204600F024F80220211D84F83D0037
:1022E000206800F0F9FC012084F8480084F83E00E2
:1022F00084F83F0084F8400084F8410084F84200EC
:1023000084F8430084F8440084F8450084F84600CB
:1023100084F8470084F83D00002010BD012070477C
:10232000704700000000000010B5044659B1081FB6
:102330004FEAB000032809D8DFE800F0020B0E11C5
:1023400004F13F000DE004F13E000AE004F1430017
:1023500007E004F1400004E004F1410001E004F171
:102360004200007801280DD171B1081F4FEAB0007A
:1023700003280DD8DFE800F002101418022084F8BA
:102380003F0014E0012010BD022084F83E000EE062
:10239000022084F843000AE0022084F8400006E0AE
:1023A000022084F8410002E0022084F84200206804
:1023B000012200F031FD4FF6FF702168C4F20000E9
:1023C000814214DC40F2FF70C4F2000081423EDD25
:1023D00040F60000C4F20000814265D040F60040A3
:1023E000C4F2000081425FD041F600004BE043F6AA
:1023F000FF70C4F2010081420EDD44F20000C4F21D
:102400000100814213D044F60000C4F20100814271
:102410000DD044F2004006E00020C4F201008142E9
:1024200005D040F20040C4F20100814248D141F29F
:10243000FF72486CC4F2000240F4004091424864CC
:102440000BDC40F2FF70C4F20000814213DCB1F1FA
:10245000804F29D040F2004015E040F2FF30C4F236
:102460000100814214DC41F60000C4F20000814208
:102470001AD0002014E040F60000C4F200008142AF
:1024800012D040F60040C4F2000081420CD017E0A8
:1024900044F20000C4F20100814205D040F2004045
:1024A000C4F2010081420BD107228868C0F2010208
:1024B00002400020062A18BFB2F5803F00D110BDAF
:1024C000086840F001000860002010BD0000000016
:1024D000704700000000000070470000000000008E
:1024E000704700000000000070470000000000007E
:1024F0007047000000000000B0B503680446D969C9
:1025000040F62F0008401D682028D3F808E00ED1BF
:1025100005F020000EF08052801800F0A280616F5C
:10252000002900F0F1812046BDE8B040084740F6A0
:102530000F00014200F09580012040F22012C1F20C
:102540000000C0F200420EEA000C05EA020010EBA7
:102550000C0000F08680C80718BF15F4807007D003
:1025600001201862D4F8900040F00100C4F89000F7
:1025700088070EF0010208D53AB102201862D4F89B
:10258000900040F00400C4F89000480708D53AB124
:1025900004201862D4F8900040F00200C4F89000C3
:1025A00008070CD505F0200050EA0C0007D00820E1
:1025B0001862D4F8900040F00800C4F890000805B4
:1025C0000BD515F0806008D04FF400601862D4F885
:1025D000900040F02000C4F89000D4F8900000284B
:1025E00000F0928111F0200009D005F020000EF0DB
:1025F0008051401803D0616F09B120468847206898
:10260000D4F89010806801F0280100F040004018D4
:1026100000F0C780204600F0F3FD20688068400687
:1026200040F1BA80206850E8020F216820F0400095
:1026300041E80202002AF5D1D4F88000002800F019
:10264000AB8043F2F111C0F600010165FEF7D4F949
:10265000002800F05981D4F88000016DBDE8B04039
:10266000084705EA0102D006E06E3FD501283DD1BA
:10267000102018629868400645D4B4F85C00B4F89D
:102680005E10B4F85E20002A1CBF401A5FEA0041C9
:1026900000F03A81216851E8001F226821F490710E
:1026A00042E80013002BF5D14FF6FE71CEF6FF7114
:1026B000226852E8022F23680A4043E80225002DD1
:1026C000F6D12021C4F88C100021E166616700BFBB
:1026D000216851E8001F226821F0100142E8001330
:1026E000002BF5D1022281B2226708E1C80225D56C
:1026F0001EF4800022D04FF4801018622046BDE8FE
:10270000B040FFF7F1BED4F8800040F20F420168FC
:10271000C4F2020291422ADC6F22C4F20202914208
:102720004BDC3F22C4F2020291426DDC1022C4F263
:102730000202914200F08B80282284E008060AD52C
:1027400005F080000EF40003C01804D0A16F00292A
:102750007FF4E9AED8E050062AD4080248D515F037
:10276000804045D02046BDE8B040FFF7B9BE40F2FA
:102770006F42C4F2020291422BDC40F23F42C4F2AB
:102780000202914247DC40F21042C4F2020291423E
:102790005DD040F2284256E02046BDE8B040FFF749
:1027A000A7BE2046FFF7A4FE0020C4F89000ABE0CF
:1027B0002046BDE8B04000F053BD9F22C4F20202A3
:1027C000914231DC7022C4F2020291423FD0882251
:1027D00039E040F29F42C4F2020291422BDC40F207
:1027E0007042C4F20202914231D040F288422AE0A3
:1027F000C80140F18980B5F1FF3FC8BFB0BD204698
:10280000BDE8B040FFF768BE4022C4F20202914228
:102810001DD0582217E040F24042C4F20202914219
:1028200015D040F258420EE0A022C4F202029142BA
:102830000DD0B82207E040F2B842C4F20202914241
:1028400005D040F2A042C4F20202914202D1D4F873
:1028500080100968043109688AB2002A45D0B4F8AA
:102860005C309A4241D2A4F85E10C069B0F5807F16
:1028700032D000BF206850E8000F216820F480703B
:1028800041E80002002AF5D1206850E8020F2168D3
:1028900020F0010041E80202002AF5D1206850E84A
:1028A000020F216820F0400041E80202002AF5D121
:1028B0002020C4F88C000020E06600BF206850E8AB
:1028C000000F216820F0100041E80002002AF5D135
:1028D000D4F88000FDF7B4FD02202067B4F85C0056
:1028E000B4F85E10401A81B209E0B4F85C1091426D
:1028F0000AD1C069B0F5807F06D10220206720464A
:10290000BDE8B040FFF7E4BDB0BD0000000000002E
:102910007047000000000000FEE70000000000001B
:10292000FEE7000000000000FEE7000000000000DD
:1029300000F007004FF0FF3C80F00703042B28BF96
:10294000042303380CFA03F338BF002099430CFA30
:1029500000F301FA00F022EA030108437047000087
:102960007047000000000000F0B581B044F22C4731
:10297000C5F6020757F8042C02F00302032A02D11D
:10298000012001B0F0BD054657F82C0C20F0806006
:102990000C4647F82C0CFEF773FA064657F82C0C39
:1029A000000105D5FEF76CFA801B0228F6D964E019
:1029B00057F8040C95E80E0020F47C3040EA013012
:1029C000E96847F8040CA2F101004FF47E426FF36E
:1029D0005F2002EB43224FF4FE0392B203EB01416E
:1029E00010442A694FF0FE4301F4FE0103EB02623A
:1029F000084402F0FE410844F8603868696920F034
:102A0000C00040EA010038603868A96920F0200061
:102A100040EA01004FF6F8713860386820F0100085
:102A20003860386920EA0100E96940EAC10038618C
:102A3000386840F0100038602CB1012C386806D19D
:102A400040F4801005E0386840F4002001E040F4D4
:102A50000010386057F82C0C40F0806047F82C0CC0
:102A6000FEF70EFA044600BF57F82C0C000107D4FD
:102A7000FEF706FA001B0328F6D3032001B0F0BDD1
:102A8000002001B0F0BD0000F0B581B044F22C4749
:102A9000C5F6020757F8042C02F00302032A02D1FC
:102AA000012001B0F0BD054657F82C0C20F08050F5
:102AB0000C4647F82C0CFEF7E3F9064657F82C0CA9
:102AC000800005D5FEF7DCF9801B0228F6D964E00A
:102AD00057F8040C95E80E0020F07C7040EA015095
:102AE000E96847F8040CA2F101004FF47E426FF34D
:102AF0005F2002EB43224FF4FE0392B203EB01414D
:102B000010442A694FF0FE4301F4FE0103EB026218
:102B1000084402F0FE41084478613868696920F48D
:102B2000406040EA010038603868A96920F400700C
:102B300040EA01004FF6F8713860386820F4807080
:102B40003860B86920EA0100E96940EAC100B8616B
:102B5000386840F4807038602CB1012C386806D198
:102B600040F4000005E0386840F4800001E040F0E7
:102B70008070386057F82C0C40F0805047F82C0CCF
:102B8000FEF77EF9044600BF57F82C0C800007D4EE
:102B9000FEF776F9001B0328F6D3032001B0F0BD41
:102BA000002001B0F0BD00007047000000000000F0
:102BB000B0B501380024B4EB106F02D001242046D8
:102BC000B0BD4EF210050F21CEF2000568604FF047
:102BD000FF3000F06DFB0720AC6028602046B0BDE0
:102BE000FEF756B9000000004EF6885042F2000C85
:102BF000CEF20000C5F2002C016841F470010160C2
:102C0000DCF8000000F00F00062806D8DCF8000011
:102C1000072161F30300CCF8000044F200404EF6B7
:102C20007F52C5F60200CEF6F622016841F001019E
:102C300001600021016103681A400260DCF8002095
:102C4000120706D5DCF80020072363F30302CCF853
:102C5000002040F200228161C0F20222C1610162C3
:102C600082620022C0F2FF12C26240F28022C0F2F1
:102C70000112026341638263C163026441640268BA
:102C800022F48022026041F200020166C5F6004291
:102C90001268B1EB527F05D148F208110122C5F24A
:102CA00000110A60D0F8D410C90448BF7047D0F8AA
:102CB000D41043F2D20241F48051C0F8D41044F24F
:102CC0000001C5F200210A60D0F8D41021F480512F
:102CD000C0F8D4107047000010B540F6FF32C4F2BF
:102CE0000002904202680FDCB0F1804F1DD040F22C
:102CF0000043C4F20003984217D040F60003C4F228
:102D00000003984211D014E040F60043C4F20003DF
:102D100098420AD040F20043C4F20103984204D022
:102D20000023C4F20103984203D122F070024B68E1
:102D30001A434FF6FF7343F6FF7CC4F20003C4F25C
:102D4000010C984210DD60451ADD44F20003C4F224
:102D5000010398422CD044F60003C4F201039842C8
:102D600026D044F2004312E040F2FF73C4F20003A5
:102D7000984211DCB0F1804F1AD040F2004313E0CA
:102D80000023C4F20103984212D040F20043C4F27F
:102D9000010398420CD00FE040F60003C4F2000398
:102DA000984205D040F60043C4F20003984203D194
:102DB00022F44072CB681A4322F0800E8A684C6974
:102DC0000B68C26260454EEA040283620EDD44F283
:102DD0000003C4F20103984213D044F60003C4F286
:102DE000010398420DD044F2004306E00023C4F2F0
:102DF0000103984205D040F20043C4F20103984217
:102E000001D109690163016841F0040101600121F8
:102E10004161026010BD000001F01F01012303FAAF
:102E200001FC036A23EA0C0302FA01F10362026A5D
:102E30001143016270470000F0B5036A026A22F094
:102E4000010243F6FF7702624FF68C72456884698F
:102E5000CFF6FE728E6822400C68C4F2010723F0A0
:102E6000020344F2000EB84242EA040C43EA0603AD
:102E7000C4F2010E0ADD704513D044F60002C4F21C
:102E8000010290420DD044F2004206E00022C4F25A
:102E90000102904205D040F20042C4F20102904289
:102EA00005D1CA6823F00C0322F004021343B84290
:102EB0000ADD704513D044F60002C4F201029042CC
:102EC0000DD044F2004206E00022C4F2010290421A
:102ED00005D040F20042C4F20102904206D1D1E98D
:102EE000057625F440723A4342EA06054560C0F88B
:102EF00018C0496841630362F0BD00000000000093
:102F000070B5036A026A22F0100248F6FF4C0262B2
:102F1000CFF6FF6C4568826902EA0C020C6840F249
:102F2000004E40F48066C4F2010E42EA042C8A6826
:102F300023F02003764543EA021307D1CA686FF0F5
:102F4000400423F0C00304EA0212134343F6FF7265
:102F5000C4F20102904212DD44F20002C4F2010206
:102F6000904213D044F60002C4F2010290420DD008
:102F700044F20042C4F20102904207D00EE0002267
:102F8000C4F20102904201D0704507D125F440629D
:102F9000D1E9056542EA860242EA85054560C0F846
:102FA00018C049688163036270BD00000000000022
:102FB00070B5036A026A22F480724FF68C74026262
:102FC000CFF6FE744668C26940F2004E224040F4DB
:102FD0008064C4F2010E0D6874458C6823F400739C
:102FE00042EA050C43EA042307D1CA6840F2FF44D1
:102FF000120223F44063A243134343F6FF72C4F268
:103000000102904212DD44F20002C4F20102904239
:1030100013D044F60002C4F2010290420DD044F2F3
:103020000042C4F20102904207D00EE00022C4F236
:103030000102904201D0704507D126F44052D1E9F7
:10304000056542EA061242EA05164660C0F81CC051
:103050004968C163036270BDB0B5046A026A22F4B4
:10306000805248F6FF430262CFF6FF63D0F804E0D7
:10307000C2691A400B6842EA032C43F6FF728D685E
:10308000C4F2010224F40053904243EA05330EDDFA
:1030900044F20002C4F20102904213D044F600024E
:1030A000C4F2010290420DD044F2004206E0002238
:1030B000C4F20102904205D040F20042C4F2010283
:1030C000904204D12EF480424D6942EA851EC0F838
:1030D00004E0C0F81CC0496801640362B0BD000090
:1030E00070B5D0F820C0026A22F480324FF68F7E8D
:1030F0000262CFF6FE7E4668436D03EA0E0343F696
:10310000FF7EC4F2010E0C688A682CF4003570450D
:1031100043EA040345EA024C0EDD44F20002C4F225
:103120000102904213D044F60002C4F20102904220
:103130000DD044F2004206E00022C4F201029042A7
:1031400005D040F20042C4F20102904204D126F4BC
:1031500080324E6942EA06264660436549688165C9
:10316000C0F820C070BD0000B0B5046A026A22F445
:10317000801248F6FF730262CFF6FF63D0F804E0D6
:10318000426D1A400B6842EA032C43F6FF728D68C9
:10319000C4F2010224F40013904243EA05530EDD09
:1031A00044F20002C4F20102904213D044F600023D
:1031B000C4F2010290420DD044F2004206E0002227
:1031C000C4F20102904205D040F20042C4F2010272
:1031D000904204D12EF480224D6942EA852EC0F837
:1031E00004E0C0F854C04968C1650362B0BD000086
:1031F000806B0021A0F85E10FFF77AB90000000094
:10320000016851E8001F026821F4907142E8001340
:10321000002BF5D14FF6FE7CCEF6FF7C026852E81B
:10322000022F036802EA0C0243E802210029F5D1CB
:10323000C16E01290AD100BF016851E8001F026870
:1032400021F0100142E80013002BF5D12021C0F835
:103250008C100021C166416770470000000000002B
:10326000016851E8001F026821F0400142E80013A4
:10327000002BF5D12021C0F8881000218167FFF7CD
:1032800047BB00000000000040F27C00C2F200409A
:10329000FFF732B900000000FEE700000000000068
:1032A0004EF60C50CEF200000068C0F302207047CA
:1032B0004EF6145300F00F02CEF20003B0F1FF3FC0
:1032C0001A4400F160434FEA0110C8BF03F564429D
:1032D00010707047000000004EF60C514FF6FF03CF
:1032E000CEF200010A681A4060F30A2242F08060C0
:1032F00040F0FD700860704770470000000000005B
:1033000070B58EB0002544F2E044CDE90755CDE913
:103310000555C5F602040226206809A940F00200FE
:103320002060206800F002000990099801200990AF
:1033300040F20040C5F60200CDE90A65CDE90C5621
:10334000FDF7BEFCA06840F2DF1140F00200A06073
:10335000A06840F2101400F00200C2F20044019094
:10336000019840F20040C4F20000C4E9000140F2BC
:10337000E730C4E902502046C4E90455FEF7A0FF37
:10338000602002A961C102A9082220460695FEF725
:1033900037FF08212046FEF7C7FF0EB070BD0000C2
:1033A00040F25C1440F23C45C2F20044B7EE008AA1
:1033B000B6EE009AC4F200059FED14AA9FED14BA70
:1033C0009FED14CA9FED14DA94ED000A00F058F94D
:1033D00030EE080A20EE090A20EE0A0ABCEEC00A06
:1033E00010EE100A2860052094ED000A30EE0B0A5A
:1033F00030EE0C1AB4EECD0AF1EE10FA31FE000AEE
:1034000084ED000A00F014F8DEE700BF00007A4403
:10341000CDCC4C3DDB0FC9C0DB0FC9400000000024
:1034200040F27801C2F200410860704700000000DD
:103430004FF47A71484300F003B800000000000028
:1034400080B54EF2180140F27802CEF20001C2F2CD
:10345000004251F804CC126802FB00FE0868002309
:103460000A689042FCD003449042A3EB020310464A
:1034700098BF63447345F3D380BD00000000000093
:1034800000F012F8FDF714FDC020052102220423EC
:1034900000F05AF84FF4F070FFF7C2FFFFF730FF6B
:1034A000FFF77EFF0000000070B54EF61450CEF21C
:1034B00000000168890312D4BFF34F8F0021BFF3CE
:1034C0006F8FC0F83C12BFF34F8FBFF36F8F01684F
:1034D00041F400310160BFF34F8FBFF36F8F01687C
:1034E000C90327D4002143F6E07C0167BFF34F8F67
:1034F000C26EC2F34E31C2F3C90202F1010E93074C
:103500000CEA41121C46754644EA0206013D04F1EC
:103510004044C0F84C62F7D10029A1F10101EFD17C
:10352000BFF34F8F016841F480310160BFF34F8FCB
:10353000BFF36F8FD0F8881241F00401C0F88812F1
:1035400070BD000000000000F0B5CDB044F2F445BD
:10355000C5F602052F6847F002072F602F6807F0B5
:10356000020702970027029E0297D5F8247347F4BA
:103570004047C5F82473D5F8247307F440470297F1
:1035800040F22C47C5F600073E6846F001063E6053
:103590003F6807F001070297029F00BFD5F8247328
:1035A000BF04FBD52127002632974FF4803733978D
:1035B00001240227359639963894CDE93B77CDE939
:1035C0003D10082732A8CDE93F2343964297449601
:1035D000FEF77AFBE8BB3F2046A945900320C1C116
:1035E00040204FF480614A904990CDE94B1045A8A6
:1035F0000421FEF7B5F908B101242AE04FF08071EB
:10360000002002911921039004914FF4DC7105917F
:1036100002210691CDE90810CDE90A0002A8149113
:10362000FDF7CAFC08B1012413E0FDF7B9FC55F819
:10363000F40C40F0800045F8F40C286840F00200DB
:103640002860286800F0020001900198FDF72CFB2B
:10365000002420464DB0F0BD4100080218BF0420F0
:103660000A0E18BF40F001004FF07F4232EA01011C
:1036700008BF40F00200012808BF05207047000085
:1036800000B510EE101A2DED028B81B0524A68463B
:10369000B2EB410F2ED94FF0E640B0EB410F94BF93
:1036A00000204FF0FF3000900098B0EE408A0028D4
:1036B0006ADB10F0010F4BD068EE080A9FED471A45
:1036C0009FED470A00EE810A9FED461A10F0020FA7
:1036D00000EE801AB7EE000A00EE810A02BF01B0C8
:1036E000BDEC028B00BD00BF01B0B1EE400ABDECE5
:1036F000028B00BD3C4B21F00042934241D911F0B6
:10370000004FDFED3A0A20EE201ADFED390A19BF2B
:1037100031EE601A71EE200A31EE201A71EE600A65
:10372000BDEEE01A11EE100A9FED321A00F0030010
:1037300000EEC10A9FED301A009000EEC10A9FED25
:103740002F1A00EEC10A9FED2E1A00EEC10AABE758
:1037500028EE080A9FED2B1ADFED2B0A10F0020F5E
:1037600040EE010A9FED291A00EE201A61EE000AD0
:10377000B0EE480A08EE200AB6D101B0BDEC028BCB
:1037800000BD00F059F88FE718EE100A4000B0F1C4
:103790007F4F0DD218EE100AFFF75EFF042808BF16
:1037A00000F042F8B0EE480A01B0BDEC028B00BD5B
:1037B00009D10120FCF7EEFD01B0BDEC028B5DF8F4
:1037C00004EB00F029B801B0B0EE480ABDEC028B62
:1037D0005DF804EB00F01CB8B61F927EB93AB2BA9D
:1037E000CA9F2A3DDDFFFFBE490E494683F9223FAD
:1037F0000000004B0000C93F00A0FD390020A233AB
:103800001A61342C336D4CB9DA82083CA0AA2ABE66
:1038100030EE000A70470000DFED020A80EEA00AD9
:1038200070470000000000009FED020A20EE000A31
:1038300070470000000000102DE9F0014FF07F42BA
:10384000B2EB410F9FBF4FF0FF310160BDE8F001C7
:1038500070474FF0004242EA0123C1F3C752783A61
:10386000551112F01F0C434CCCF120067C44C1F3DF
:10387000C752A2F178024FEA621204EB820254F8B6
:10388000254008BFD2E9015612D0556804FA0CF45D
:1038900025FA06F73C43976805FA0CF527FA06F86F
:1038A000D26807FA0CFCF24045EA08054CEA020629
:1038B000A4FB034CA5FB0352A6FB03631D449D42DE
:1038C00034BF012600261319334416B1934202D99E
:1038D00003E0934201D2012200E00022624402F19F
:1038E000200C9206DC0C42EA443200EE102A5B0304
:1038F000DFED210AF8EEC01A00EE103A4FEA9C1CE8
:1039000011F0004FB8EE400AC0F800C020EE201AB7
:1039100000EE105ADFED190AB8EE400A20EE200A38
:1039200071EE810A70EE800A10EE902A02F50062B4
:103930006FF30B0200EE902A70EEE11A31EEC11A1D
:10394000DFED101A30EE411A9FED0D0A20EE800ACD
:1039500001EE210A9FED0C1A00EE810A04BFBDE8BA
:10396000F0017047CCF180510160BDE8F001B1EE8B
:10397000400A704738010000000000360000802C2B
:1039800022AAFD29DB0FC92F0000C92FF1EE100A72
:103990004FF6FF71C0F2C03120EA010040F04070E4
:1039A000E1EE100A70470000000000006E83F9A2EB
:1039B0002915444ED15727FCC0DD34F5999562DBBB
:1039C0004190433CAB6351FE000000000102030440
:1039D0000102030406070809F83900080000002462
:1039E00018000000D4020008103A00081800002453
:1039F000500B0000F0020008010000000090D0030E
:103A00000090D00301000000100000000000000042
:040000050800029954
:00000001FF
